:10119D00751D03E4F51CFB7A00791C7F0302058C99
:10004600751C40751D017521007520C2751F01754F
:100056001E00752301E4F524FB7A00791C7F01124A
:0C00660000967D017F01120EF153A23FB5
:01007200226B
:0F11BD001211D97F611211F17FFA1211AD80F476
:0C11D90043BA8012119D120046D2AF22D2
:100B220090000112081CFFE5DE54F04FF5DE900044
:100B32000212081CC43354E0FFE5DE54DF4FF5DE39
:100B4200120803D3941F74809480503790000312CC
:100B5200081CFFD3940174809480502790000412E3
:100B6200081CFED39403748094805017EEC433544F
:100B7200E0FEEFC433333354804EFF1208034F902C
:040B8200FEA8F022B7
:0D11CC00EF6401700443BC802253BC7F22FD
:100A3900EFD3940F7480948040028069E4F5BDF58A
:100A4900BEE5BC54F044404FF5BC00000000000076
:100A590000000000E4FDEDC394FA748094805045D1
:100A6900E5BC30E53D53BCDFE5DEAFBD30E50EEF5B
:100A7900FEACBEECFBEEF52FEBF5308020752F00B8
:100A89008F30E5BEC4540FFBE530C4F8540FC86875
:100A9900FFE52FC454F048F52FEF4BF530AE2FAFDB
:090AA90030220D80B17E107F00A7
:010AB2002221
:03002B000200864A
:0400860053BCDF3256
:0F11AD007DA37C08ED1D70011C144C70F7DFF161
:0111BC002210
:10058C00EFD394077480948040037FFF22120803FA
:10059C00FED394037480948040037FFF22EF704459
:1005AC00EE700B90000112081CF452935294120836
:1005BC00036401700B90000112081C4293F45294D6
:1005CC00120803FE6402700A90000112081C429388
:1005DC004294EE6403700D90000112081CFEF4525C
:1005EC0093EE4294EF64017046120803FE700B9078
:1005FC00000112081CF452915292EE6401700B909F
:10060C00000112081C4291F4529212080364027009
:10061C000A90000112081C429142921208036403D2
:10062C00700D90000112081CFEF45291EE4292EFF4
:10063C0064027046120803FE700B90000112081C35
:10064C00F452955296EE6401700B90000112081C46
:10065C004295F452961208036402700A900001123B
:10066C00081C429542961208036403700D90000119
:10067C0012081CFEF45295EE4296EF64037046127B
:10068C000803FE700B90000112081CF452B152B218
:10069C00EE6401700B90000112081C42B1F452B2CE
:1006AC001208036402700A90000112081C42B14245
:1006BC00B21208036403700D90000112081CFEF4C2
:1006CC0052B1EE42B2EF64047046120803FE700B96
:1006DC0090000112081CF452B352B4EE6401700B7A
:1006EC0090000112081C42B3F452B41208036402C5
:1006FC00700A90000112081C42B342B41208036441
:10070C0003700D90000112081CFEF452B3EE42B4BB
:10071C00EF64057046120803FE700B90000112087E
:10072C001CF452C952CAEE6401700B9000011208FD
:10073C001C42C9F452CA1208036402700A900001E8
:10074C0012081C42C942CA1208036403700D9000BF
:10075C000112081CFEF452C9EE42CAEF6406704640
:10076C00120803FE700B90000112081CF452CB52BD
:10077C00CCEE6401700B90000112081C42CBF452B9
:10078C00CC1208036402700A90000112081C42CBC0
:10079C0042CC1208036403700D90000112081CFE79
:1007AC00F452CBEE42CCEF64077049120803FF7E83
:1007BC0000700B90000112081CF452E152E2EF643D
:1007CC00014E700B90000112081C42E1F452E2122F
:1007DC0008036402700A90000112081C42E142E214
:1007EC001208036403700D90000112081CFFF452F0
:0707FC00E1EF42E27F002261
:100D4800EFFB7A00D394017480948040037FFF22E4
:100D5800EDD394037480948040037FFF22EB4A70A4
:100D680004C2A98002D2A9ED700553B7FDC2B9ED3E
:100D7800FF7E006401700553B7FDD2B9EF64024EDF
:100D8800700543B702C2B9EF64034E700543B7025A
:050D9800D2B97F00222A
:100D9D00EFFB7A00D394017480948040037FFF228F
:100DAD00EDD394037480948040037FFF22EB4A704F
:100DBD0004C2AB8002D2ABED700553B7F7C2BBEDE9
:100DCD00FF7E006401700553B7F7D2BBEF64024E8E
:100DDD00700543B708C2BBEF64034E700543B708F7
:050DED00D2BB7F0022D3
:1010EA00EFD394017480948040037FFF22EDD39460
:1010FA00037480948040037FFF22EF25E025E0FF00
:0A110A00E5AF54FB4FF5AFE4FF2200
:10111400EFD394017480948040037FFF22EDD39435
:10112400037480948040037FFF22EFC43354E0FFB4
:0A113400E5AF54DF4FF5AFE4FF22F2
:1010BF00EFD394017480948040037FFF22EDD3948B
:1010CF00037480948040037FFF22EFC4333354C0F6
:0B10DF00FFE5AF54BF4FF5AFE4FF2268
:100DF200EFFB7A00D394017480948040037FFF223A
:100E0200EDD394037480948040037FFF22EB4A70F9
:100E120004C2A88002D2A8ED700553B7FEC2B8ED95
:100E2200FF7E006401700553B7FED2B8EF64024E34
:100E3200700543B701C2B8EF64034E700543B701B2
:050E4200D2B87F002280
:100E4700EFFB7A00D394017480948040037FFF22E4
:100E5700EDD394037480948040037FFF22EB4A70A4
:100E670004C2AA8002D2AAED700553B7FBC2BAED3D
:100E7700FF7E006401700553B7FBD2BAEF64024EE0
:100E8700700543B704C2BAEF64034E700543B70455
:050E9700D2BA7F002229
:10115B00EFD394017480948040037FFF22EFC4543B
:0C116B00F0FFE58F54EF4FF58FE4FF22FA
:10113E00EFD394017480948040037FFF22EFC43379
:0D114E0054E0FFE58F54DF4FF58FE4FF22E2
:10000300EFD394017480948040037FFF22EFC433C5
:0E0013003354C0FFE58F54BF4FF58FE4FF223A
:100E9C00EFFB7A00D394017480948040037FFF228F
:100EAC00EDD394037480948040037FFF22EB4A704F
:100EBC0004C2AD8002D2ADED700553B7DFC2BDEDFB
:100ECC00FF7E006401700553B7DFD2BDEF64024EA4
:100EDC00700543B720C2BDEF64034E700543B720C5
:050EEC00D2BD7F0022D1
:100C3E00EDFB7A00D394037480948040037FFF22EF
:100C4E00EF30E10543E620800353E6DFEF30E005A9
:100C5E0043E610800353E6EFEB4A700653B6DF53BC
:100C6E00B5DFED6401700653B6DF43B520EDFF7EB0
:100C7E00006402700643B62053B5DFEF64034E7076
:0A0C8E000643B62043B5207F002284
:100AB300EFD394017480948040037FFF22EBD3949F
:100AC300037480948040037FFF22EF64017012ED72
:100AD30090FE817006E0547FF08011E04480F08046
:100AE3000BEF700890FE83E054874DF0EBFF7E0020
:100AF300700653B6DF53B5DFEF64014E700653B68D
:100B0300DF43B520EF64024E700643B62053B5DFD2
:0F0B1300EF64034E700643B62043B5207F0022E7
:100EF100EFFB7A00D394017480948040037FFF223A
:100F0100EDD394037480948040037FFF22EB4A70F9
:100F110004C2AC8002D2ACED700553B7EFC2BCED98
:100F2100FF7E006401700553B7EFD2BCEF64024E3F
:100F3100700543B710C2BCEF64034E700543B71090
:050F4100D2BC7F00227C
:100CF200EFD394017480948040037FFF22EDFB7A4E
:100D020000D394037480948040037FFF22E5AF54A4
:100D1200FE4FF5AFEB4A700653B6FE53B5FEED64D7
:100D220001700653B6FE43B501EDFF7E006402700A
:100D32000643B60153B5FEEF64034E700643B60197
:060D420043B5017F002211
:100B8600EFD394017480948040037FFF22EDFB7ABB
:100B960000D394037480948040037FFF22EF3333A5
:100BA6003354F8FFE5AF54F74FF5AFEB4A700653F1
:100BB600EEFE53DFFEED6401700653EEFE43DF01E9
:100BC600EDFF7E006402700643EE0153DFFEEF6424
:0D0BD600034E700643EE0143DF017F002255
:100BE300EFD394017480948040037FFF22EDFB7A5E
:100BF30000D394037480948040037FFF22EFC45496
:100C0300F0FFE5AF54EF4FF5AFEB4A700653EEFD3F
:100C130053DFFDED6401700653EEFD43DF02EDFF8C
:100C23007E006402700643EE0253DFFDEF64034E61
:0B0C3300700643EE0243DF027F002248
:100C9800EFD394017480948040037FFF22EDFB7AA8
:100CA80000D394037480948040037FFF22EF25E0F3
:100CB800FFE5AF54FD4FF5AFEB4A700653B6FD5351
:100CC800B5FDED6401700653B6FD43B502EDFF7E38
:100CD800006402700643B60253B5FDEF64034E701C
:0A0CE8000643B60243B5027F002266
:1009A100EFD394817480948040037FFF22EBD39432
:1009B100037480948040037FFF22EF247F603A0418
:1009C100706E90FEC4EDF0EBFF7E00700653B6FB37
:1009D10053B5FBEF64014E700653B6FB43B504EF0C
:1009E10064024E700643B60453B5FBEF64034E70C8
:1009F1004443B60443B504803C90FEE4EDF0EBFFC4
:100A01007E00700653B6F753B5F7EF64014E7006DA
:100A110053B6F743B508EF64024E700643B6085368
:100A2100B5F7EF64034E700D43B60843B508800572
:080A310090FEE4EDF07F0022CD
:10103100EDFB7A00D3940374809480502FEB7006FB
:1010410053EEFB53DFFBEB64014A700653EEFB43A7
:10105100DF04EB64024A700643EE0453DFFBEB64EA
:10106100034A700B43EE0443DF0480037FFF2290A9
:07107100FE62EFF07F002298
:080096008F258B268A2789289B
:10009E00EF64016003020214F508F509F50AF50B89
:1000AE00F50CF529F52A7440252AF58274013529B7
:1000BE00F583E4F0052AE52A7002052964804529B6
:1000CE0070E4E4F529F52A7400252AF582740035CA
:1000DE0029F583E4F0052AE52A7002052964804596
:1000EE002970E4AB26AA27A928120803FFE5985425
:1000FE003F4FF598EF64C06008EF64406003020163
:10010E00C390000212093B7F007E607D547C00127A
:10011E0008858F2E8E2D8D2C8C2BE4FFFE7D01FC01
:10012E00AB2EAA2DA92CA82BC312091740037FFFB3
:10013E0022C3E4952EF52EE4952DF52D7401952C04
:10014E00F52CE4952BF52BAB26AA27A928900001B8
:10015E0012081CFB7A006401702CC28E538EFE5363
:10016E0089BF5389CF438E40AF2EAE2DAD2CAC2B15
:10017E0078081209288F8D852E8BC2AB5389BF53F9
:10018E008FFDD28E8069EB64024A7026538EEF4348
:10019E008E01538EF7438E04AF2EAE2DAD2CAC2BAD
:1001AE0078081209288FD6852ED753AFFB438E10B1
:1001BE00803D7FFF22AB26AA27A928120803FF7EC7
:1001CE0000701490000812081C64017005438E2004
:1001DE00801D538EDF8018EF64804E7012900008E1
:1001EE0012081C64017005438780800353877FAB20
:1001FE0026AA27A92890000712081C7004C29C800A
:10020E0002D29C7F0022E52564026003020311F5F1
:10021E000DF50EF50FF510F511F529F52A74E025FB
:10022E002AF58274013529F583E4F0052AE52A7052
:10023E000205296480452970E4E4F529F52A7480C5
:10024E00252AF58274003529F583E4F0052AE52A7E
:10025E00700205296480452970E4AB26AA27A928D7
:10026E00120803FF7E0064C06005EF64407077EFF4
:10027E0064C04E7005439A808003539A7F900002AB
:10028E0012093B7F007E607D547C001208858F2E04
:10029E008E2D8D2C8C2BE4FFFE7D01FCAB2EAA2D1A
:1002AE00A92CA82BC312091740037FFF22C3E49584
:1002BE002EF52EE4952DF52D7401952CF52CE49547
:1002CE002BF52B538EEF538EF7438E04AF2EAE2DA0
:1002DE00AD2CAC2B78081209288FD6852ED753AFAC
:1002EE00FB438E1080037FFF22AB26AA27A92890FE
:1002FE00000712081CC454F0FFE59A54EF4FF59A0C
:10030E007F0022E5256403600302044DF512F51308
:10031E00F514F515F516F529F52A7460252AF582DA
:10032E0074023529F583E4F0052AE52A70020529C1
:10033E006440452970E4E4F529F52A7400252AF570
:10034E008274013529F583E4F0052AE52A70020549
:10035E00296440452970E4AB26AA27A92812080370
:10036E00FF7E0064C06008EF64406003020430EF5B
:10037E0064C04E700543AC80800353AC7F90000286
:10038E0012093B7F007E607D547C001208858F2E03
:10039E008E2D8D2C8C2BE4FFFE7D01FCAB2EAA2D19
:1003AE00A92CA82BC312091740037FFF22C3E49583
:1003BE002EF52EE4952DF52D7401952CF52CE49546
:1003CE002BF52BAB26AA27A92890000112081CFB9F
:1003DE007A006403701D43AC40AF2EAE2DAD2CAC35
:1003EE002B78081209288FD4852ED553D1F043D1FE
:1003FE000A8032EB64024A7026538EEF53ACBF5321
:10040E008EF7438E04AF2EAE2DAD2CAC2B7808128A
:10041E0009288FD6852ED753AFFB438E1080067FCB
:10042E00FF227FFF22AB26AA27A9289000071208D9
:10043E001CC454F0FFE5AC54EF4FF5AC7F0022E541
:10044E002564046003020589F517F518F519F51AE8
:10045E00F51BF529F52A74A0252AF5827402352993
:10046E00F583E4F0052AE52A700205296420452962
:10047E0070E4E4F529F52A74C0252AF58274013555
:10048E0029F583E4F0052AE52A7002052964204542
:10049E002970E4AB26AA27A928120803FF7E006460
:1004AE00C06008EF6440600302056CEF64C04E70DC
:1004BE0005438480800353847F90000212093B7FA2
:1004CE00007E607D547C001208858F2E8E2D8D2C23
:1004DE008C2BE4FFFE7D01FCAB2EAA2DA92CA82BA4
:1004EE00C312091740037FFF22C3E4952EF52EE4B5
:1004FE00952DF52D7401952CF52CE4952BF52BAB44
:10050E0026AA27A92890000112081CFB7A00640471
:10051E00701D438440AF2EAE2DAD2CAC2B7808123F
:10052E0009288FD2852ED353D10F43D1A08032EB21
:10053E0064024A7026538EEF5384BF538EF7438E58
:10054E0004AF2EAE2DAD2CAC2B78081209288FD609
:10055E00852ED753AFFB438E1080067FFF227FFF81
:10056E0022AB26AA27A92890000712081CC454F013
:0D057E00FFE58454EF4FF5847F00227FFFDE
:01058B00224D
:0A11F1008F99750A01E50A70FC22CF
:10002E00120803FF600C1211F1740129F9E43AFA77
:03003E0080EE222F
:0A11FB008F9B750F01E50F70FC22B9
:10007300120803FF600C1211FB740129F9E43AFA28
:0300830080EE22EA
:0A1205008FAD751401E51470FC2292
:10117700120803FF600C121205740129F9E43AFA08
:0311870080EE22D5
:0A120F008F85751901E51970FC22A6
:10118A00120803FF600C12120F740129F9E43AFAEB
:03119A0080EE22C2
:05002600AE070211FB12
:0300230002107850
:10107800C0E0C083C082C0D075D000C007309824BB
:10108800C298C3E50B9480748094804003750B006C
:10109800AF0B050B74002FF582E43400F583E59956
:1010A800F0750C05309905C299750A00D007D0D0A3
:0710B800D082D083D0E032AA
:03004300020FE4C5
:100FE400C0E0C083C082C0D075D000C007E59A308D
:100FF400E025539AFEC3E5109480748094804003E6
:10100400751000AF10051074802FF582E43400F5DC
:1010140083E59BF0751105E59A30E106539AFD7559
:0D1024000F00D007D0D0D082D083D0E032B2
:03008B00020F461B
:100F4600C0E0C083C082C0D075D000C007E5AC54F5
:100F560001602553ACFEC3E515944074809480402F
:100F660003751500AF15051574002FF582E43401DD
:100F7600F583E5ADF0751605E5AC5402600653AC95
:0F0F8600FD751400D007D0D0D082D083D0E032D8
:03009300020F95C4
:100F9500C0E0C083C082C0D075D000C007E58454CE
:100FA5000160255384FEC3E51A9420748094804023
:100FB50003751A00AF1A051A74C02FF582E43401BF
:100FC500F583E585F0751B05E584540260065384B9
:0F0FD500FD751900D007D0D0D082D083D0E03284
:030000000211E505
:0C11E500787FE4F6D8FD7581300211BD62
:10080300BB010689828A83E0225002E722BBFE02F3
:09081300E32289828A83E4932226
:10081C00BB010CE58229F582E5833AF583E0225091
:10082C0006E92582F8E622BBFE06E92582F8E222DB
:0D083C00E58229F582E5833AF583E49322F5
:1008490075F008758200EF2FFFEE33FECD33CDCC66
:1008590033CCC58233C5829BED9AEC99E5829840E9
:100869000CF582EE9BFEED9AFDEC99FC0FD5F0D6C6
:10087900E4CEFBE4CDFAE4CCF9A88222B800C1B9F0
:100889000059BA002DEC8BF084CFCECDFCE5F0CB2E
:10089900F97818EF2FFFEE33FEED33FDEC33FCEB67
:1008A90033FB10D703994004EB99FB0FD8E5E4F922
:1008B900FA227818EF2FFFEE33FEED33FDEC33FC0F
:1008C900C933C910D7059BE99A4007EC9BFCE99A03
:1008D900F90FD8E0E4C9FAE4CCFB2275F010EF2F48
:1008E900FFEE33FEED33FDCC33CCC833C810D70748
:1008F9009BEC9AE899400AED9BFDEC9AFCE899F883
:0E0909000FD5F0DAE4CDFBE4CCFAE4C8F92215
:10091700EB9FF5F0EA9E42F0E99D42F0E89C45F036
:0109270022AD
:10092800E8600FECC313FCED13FDEE13FEEF13FFAD
:03093800D8F122D1
:10093B00BB010DE58229F582E5833AF5830209783F
:10094B005007E92582F802096BBBFE07E92582F8FF
:10095B00020984E58229F582E5833AF58302099140
:0D096B00E6FB08E6F908E6FA08E6CBF822FC
:0C097800E0F8A3E0F9A3E0FAA3E0FB2202
:0D098400E2FB08E2F908E2FA08E2CBF822F3
:10099100E493F8740193F9740293FA740393FB22BC
:00000001FF
